{
    "contractName": "HodlVault",
    "abi": [
        {
            "inputs": [
                {
                    "internalType": "uint256",
                    "name": "_weeklyAmount",
                    "type": "uint256"
                },
                {
                    "internalType": "uint256",
                    "name": "_initialDepositTimestamp",
                    "type": "uint256"
                },
                {
                    "internalType": "uint256",
                    "name": "_finalDepositTimestamp",
                    "type": "uint256"
                },
                {
                    "internalType": "address",
                    "name": "_strategyAsset",
                    "type": "address"
                },
                {
                    "internalType": "address",
                    "name": "_underlyingAsset",
                    "type": "address"
                },
                {
                    "internalType": "address",
                    "name": "_swapRouter",
                    "type": "address"
                },
                {
                    "internalType": "address",
                    "name": "_aggregator",
                    "type": "address"
                },
                {
                    "internalType": "address",
                    "name": "_classAddress",
                    "type": "address"
                },
                {
                    "internalType": "address",
                    "name": "_teacherAddress",
                    "type": "address"
                },
                {
                    "internalType": "address[]",
                    "name": "_students",
                    "type": "address[]"
                }
            ],
            "stateMutability": "nonpayable",
            "type": "constructor"
        },
        {
            "inputs": [
                {
                    "internalType": "address",
                    "name": "target",
                    "type": "address"
                }
            ],
            "name": "AddressEmptyCode",
            "type": "error"
        },
        {
            "inputs": [
                {
                    "internalType": "address",
                    "name": "account",
                    "type": "address"
                }
            ],
            "name": "AddressInsufficientBalance",
            "type": "error"
        },
        {
            "inputs": [],
            "name": "ClaimsDisabled",
            "type": "error"
        },
        {
            "inputs": [
                {
                    "internalType": "address",
                    "name": "spender",
                    "type": "address"
                },
                {
                    "internalType": "uint256",
                    "name": "allowance",
                    "type": "uint256"
                },
                {
                    "internalType": "uint256",
                    "name": "needed",
                    "type": "uint256"
                }
            ],
            "name": "ERC20InsufficientAllowance",
            "type": "error"
        },
        {
            "inputs": [
                {
                    "internalType": "address",
                    "name": "sender",
                    "type": "address"
                },
                {
                    "internalType": "uint256",
                    "name": "balance",
                    "type": "uint256"
                },
                {
                    "internalType": "uint256",
                    "name": "needed",
                    "type": "uint256"
                }
            ],
            "name": "ERC20InsufficientBalance",
            "type": "error"
        },
        {
            "inputs": [
                {
                    "internalType": "address",
                    "name": "approver",
                    "type": "address"
                }
            ],
            "name": "ERC20InvalidApprover",
            "type": "error"
        },
        {
            "inputs": [
                {
                    "internalType": "address",
                    "name": "receiver",
                    "type": "address"
                }
            ],
            "name": "ERC20InvalidReceiver",
            "type": "error"
        },
        {
            "inputs": [
                {
                    "internalType": "address",
                    "name": "sender",
                    "type": "address"
                }
            ],
            "name": "ERC20InvalidSender",
            "type": "error"
        },
        {
            "inputs": [
                {
                    "internalType": "address",
                    "name": "spender",
                    "type": "address"
                }
            ],
            "name": "ERC20InvalidSpender",
            "type": "error"
        },
        {
            "inputs": [
                {
                    "internalType": "address",
                    "name": "receiver",
                    "type": "address"
                },
                {
                    "internalType": "uint256",
                    "name": "assets",
                    "type": "uint256"
                },
                {
                    "internalType": "uint256",
                    "name": "max",
                    "type": "uint256"
                }
            ],
            "name": "ERC4626ExceededMaxDeposit",
            "type": "error"
        },
        {
            "inputs": [
                {
                    "internalType": "address",
                    "name": "receiver",
                    "type": "address"
                },
                {
                    "internalType": "uint256",
                    "name": "shares",
                    "type": "uint256"
                },
                {
                    "internalType": "uint256",
                    "name": "max",
                    "type": "uint256"
                }
            ],
            "name": "ERC4626ExceededMaxMint",
            "type": "error"
        },
        {
            "inputs": [
                {
                    "internalType": "address",
                    "name": "owner",
                    "type": "address"
                },
                {
                    "internalType": "uint256",
                    "name": "shares",
                    "type": "uint256"
                },
                {
                    "internalType": "uint256",
                    "name": "max",
                    "type": "uint256"
                }
            ],
            "name": "ERC4626ExceededMaxRedeem",
            "type": "error"
        },
        {
            "inputs": [
                {
                    "internalType": "address",
                    "name": "owner",
                    "type": "address"
                },
                {
                    "internalType": "uint256",
                    "name": "assets",
                    "type": "uint256"
                },
                {
                    "internalType": "uint256",
                    "name": "max",
                    "type": "uint256"
                }
            ],
            "name": "ERC4626ExceededMaxWithdraw",
            "type": "error"
        },
        {
            "inputs": [],
            "name": "FailedInnerCall",
            "type": "error"
        },
        {
            "inputs": [],
            "name": "MathOverflowedMulDiv",
            "type": "error"
        },
        {
            "inputs": [],
            "name": "NotAStudent",
            "type": "error"
        },
        {
            "inputs": [
                {
                    "internalType": "address",
                    "name": "owner",
                    "type": "address"
                }
            ],
            "name": "OwnableInvalidOwner",
            "type": "error"
        },
        {
            "inputs": [
                {
                    "internalType": "address",
                    "name": "account",
                    "type": "address"
                }
            ],
            "name": "OwnableUnauthorizedAccount",
            "type": "error"
        },
        {
            "inputs": [
                {
                    "internalType": "address",
                    "name": "token",
                    "type": "address"
                }
            ],
            "name": "SafeERC20FailedOperation",
            "type": "error"
        },
        {
            "inputs": [],
            "name": "StudentHasVoted",
            "type": "error"
        },
        {
            "inputs": [],
            "name": "TieVoteAgain",
            "type": "error"
        },
        {
            "anonymous": false,
            "inputs": [
                {
                    "indexed": true,
                    "internalType": "address",
                    "name": "owner",
                    "type": "address"
                },
                {
                    "indexed": true,
                    "internalType": "address",
                    "name": "spender",
                    "type": "address"
                },
                {
                    "indexed": false,
                    "internalType": "uint256",
                    "name": "value",
                    "type": "uint256"
                }
            ],
            "name": "Approval",
            "type": "event"
        },
        {
            "anonymous": false,
            "inputs": [
                {
                    "indexed": true,
                    "internalType": "address",
                    "name": "sender",
                    "type": "address"
                },
                {
                    "indexed": true,
                    "internalType": "address",
                    "name": "owner",
                    "type": "address"
                },
                {
                    "indexed": false,
                    "internalType": "uint256",
                    "name": "assets",
                    "type": "uint256"
                },
                {
                    "indexed": false,
                    "internalType": "uint256",
                    "name": "shares",
                    "type": "uint256"
                }
            ],
            "name": "Deposit",
            "type": "event"
        },
        {
            "anonymous": false,
            "inputs": [
                {
                    "indexed": false,
                    "internalType": "uint256",
                    "name": "price",
                    "type": "uint256"
                },
                {
                    "indexed": false,
                    "internalType": "uint256",
                    "name": "receivedAmount",
                    "type": "uint256"
                }
            ],
            "name": "LossStopped",
            "type": "event"
        },
        {
            "anonymous": false,
            "inputs": [
                {
                    "indexed": true,
                    "internalType": "address",
                    "name": "previousOwner",
                    "type": "address"
                },
                {
                    "indexed": true,
                    "internalType": "address",
                    "name": "newOwner",
                    "type": "address"
                }
            ],
            "name": "OwnershipTransferred",
            "type": "event"
        },
        {
            "anonymous": false,
            "inputs": [
                {
                    "indexed": false,
                    "internalType": "uint256",
                    "name": "tier",
                    "type": "uint256"
                },
                {
                    "indexed": false,
                    "internalType": "uint256",
                    "name": "price",
                    "type": "uint256"
                },
                {
                    "indexed": false,
                    "internalType": "uint256",
                    "name": "soldAmount",
                    "type": "uint256"
                }
            ],
            "name": "ProfitTaken",
            "type": "event"
        },
        {
            "anonymous": false,
            "inputs": [
                {
                    "indexed": true,
                    "internalType": "address",
                    "name": "from",
                    "type": "address"
                },
                {
                    "indexed": true,
                    "internalType": "address",
                    "name": "to",
                    "type": "address"
                },
                {
                    "indexed": false,
                    "internalType": "uint256",
                    "name": "value",
                    "type": "uint256"
                }
            ],
            "name": "Transfer",
            "type": "event"
        },
        {
            "anonymous": false,
            "inputs": [
                {
                    "indexed": true,
                    "internalType": "address",
                    "name": "sender",
                    "type": "address"
                },
                {
                    "indexed": true,
                    "internalType": "address",
                    "name": "receiver",
                    "type": "address"
                },
                {
                    "indexed": true,
                    "internalType": "address",
                    "name": "owner",
                    "type": "address"
                },
                {
                    "indexed": false,
                    "internalType": "uint256",
                    "name": "assets",
                    "type": "uint256"
                },
                {
                    "indexed": false,
                    "internalType": "uint256",
                    "name": "shares",
                    "type": "uint256"
                }
            ],
            "name": "Withdraw",
            "type": "event"
        },
        {
            "inputs": [
                {
                    "internalType": "address",
                    "name": "owner",
                    "type": "address"
                },
                {
                    "internalType": "address",
                    "name": "spender",
                    "type": "address"
                }
            ],
            "name": "allowance",
            "outputs": [
                {
                    "internalType": "uint256",
                    "name": "",
                    "type": "uint256"
                }
            ],
            "stateMutability": "view",
            "type": "function"
        },
        {
            "inputs": [
                {
                    "internalType": "address",
                    "name": "spender",
                    "type": "address"
                },
                {
                    "internalType": "uint256",
                    "name": "value",
                    "type": "uint256"
                }
            ],
            "name": "approve",
            "outputs": [
                {
                    "internalType": "bool",
                    "name": "",
                    "type": "bool"
                }
            ],
            "stateMutability": "nonpayable",
            "type": "function"
        },
        {
            "inputs": [],
            "name": "asset",
            "outputs": [
                {
                    "internalType": "address",
                    "name": "",
                    "type": "address"
                }
            ],
            "stateMutability": "view",
            "type": "function"
        },
        {
            "inputs": [
                {
                    "internalType": "address",
                    "name": "account",
                    "type": "address"
                }
            ],
            "name": "balanceOf",
            "outputs": [
                {
                    "internalType": "uint256",
                    "name": "",
                    "type": "uint256"
                }
            ],
            "stateMutability": "view",
            "type": "function"
        },
        {
            "inputs": [
                {
                    "internalType": "bytes",
                    "name": "checkData",
                    "type": "bytes"
                }
            ],
            "name": "checkUpkeep",
            "outputs": [
                {
                    "internalType": "bool",
                    "name": "upkeepNeeded",
                    "type": "bool"
                },
                {
                    "internalType": "bytes",
                    "name": "performData",
                    "type": "bytes"
                }
            ],
            "stateMutability": "view",
            "type": "function"
        },
        {
            "inputs": [],
            "name": "classAddress",
            "outputs": [
                {
                    "internalType": "address payable",
                    "name": "",
                    "type": "address"
                }
            ],
            "stateMutability": "view",
            "type": "function"
        },
        {
            "inputs": [
                {
                    "internalType": "uint256",
                    "name": "shares",
                    "type": "uint256"
                }
            ],
            "name": "convertToAssets",
            "outputs": [
                {
                    "internalType": "uint256",
                    "name": "",
                    "type": "uint256"
                }
            ],
            "stateMutability": "view",
            "type": "function"
        },
        {
            "inputs": [
                {
                    "internalType": "uint256",
                    "name": "assets",
                    "type": "uint256"
                }
            ],
            "name": "convertToShares",
            "outputs": [
                {
                    "internalType": "uint256",
                    "name": "",
                    "type": "uint256"
                }
            ],
            "stateMutability": "view",
            "type": "function"
        },
        {
            "inputs": [],
            "name": "decimals",
            "outputs": [
                {
                    "internalType": "uint8",
                    "name": "",
                    "type": "uint8"
                }
            ],
            "stateMutability": "view",
            "type": "function"
        },
        {
            "inputs": [
                {
                    "internalType": "uint256",
                    "name": "assets",
                    "type": "uint256"
                },
                {
                    "internalType": "address",
                    "name": "receiver",
                    "type": "address"
                }
            ],
            "name": "deposit",
            "outputs": [
                {
                    "internalType": "uint256",
                    "name": "",
                    "type": "uint256"
                }
            ],
            "stateMutability": "nonpayable",
            "type": "function"
        },
        {
            "inputs": [],
            "name": "emergencyExit",
            "outputs": [],
            "stateMutability": "nonpayable",
            "type": "function"
        },
        {
            "inputs": [],
            "name": "finalPurchaseTimestamp",
            "outputs": [
                {
                    "internalType": "uint256",
                    "name": "",
                    "type": "uint256"
                }
            ],
            "stateMutability": "view",
            "type": "function"
        },
        {
            "inputs": [],
            "name": "finalWithdrawalTimestamp",
            "outputs": [
                {
                    "internalType": "uint256",
                    "name": "",
                    "type": "uint256"
                }
            ],
            "stateMutability": "view",
            "type": "function"
        },
        {
            "inputs": [],
            "name": "firstPurchaseTimestamp",
            "outputs": [
                {
                    "internalType": "uint256",
                    "name": "",
                    "type": "uint256"
                }
            ],
            "stateMutability": "view",
            "type": "function"
        },
        {
            "inputs": [],
            "name": "getAveragePrice",
            "outputs": [
                {
                    "internalType": "uint256",
                    "name": "",
                    "type": "uint256"
                }
            ],
            "stateMutability": "view",
            "type": "function"
        },
        {
            "inputs": [],
            "name": "intervalAutomation",
            "outputs": [
                {
                    "internalType": "uint256",
                    "name": "",
                    "type": "uint256"
                }
            ],
            "stateMutability": "view",
            "type": "function"
        },
        {
            "inputs": [],
            "name": "isClaimEnabled",
            "outputs": [
                {
                    "internalType": "bool",
                    "name": "",
                    "type": "bool"
                }
            ],
            "stateMutability": "view",
            "type": "function"
        },
        {
            "inputs": [],
            "name": "isSetModeEnabled",
            "outputs": [
                {
                    "internalType": "bool",
                    "name": "",
                    "type": "bool"
                }
            ],
            "stateMutability": "view",
            "type": "function"
        },
        {
            "inputs": [],
            "name": "isStrategyExited",
            "outputs": [
                {
                    "internalType": "bool",
                    "name": "",
                    "type": "bool"
                }
            ],
            "stateMutability": "view",
            "type": "function"
        },
        {
            "inputs": [],
            "name": "isStrategyStopped",
            "outputs": [
                {
                    "internalType": "bool",
                    "name": "",
                    "type": "bool"
                }
            ],
            "stateMutability": "view",
            "type": "function"
        },
        {
            "inputs": [],
            "name": "lastAveragePrice",
            "outputs": [
                {
                    "internalType": "uint256",
                    "name": "",
                    "type": "uint256"
                }
            ],
            "stateMutability": "view",
            "type": "function"
        },
        {
            "inputs": [],
            "name": "lastTimeStampAutomation",
            "outputs": [
                {
                    "internalType": "uint256",
                    "name": "",
                    "type": "uint256"
                }
            ],
            "stateMutability": "view",
            "type": "function"
        },
        {
            "inputs": [
                {
                    "internalType": "address",
                    "name": "",
                    "type": "address"
                }
            ],
            "name": "maxDeposit",
            "outputs": [
                {
                    "internalType": "uint256",
                    "name": "",
                    "type": "uint256"
                }
            ],
            "stateMutability": "view",
            "type": "function"
        },
        {
            "inputs": [
                {
                    "internalType": "address",
                    "name": "",
                    "type": "address"
                }
            ],
            "name": "maxMint",
            "outputs": [
                {
                    "internalType": "uint256",
                    "name": "",
                    "type": "uint256"
                }
            ],
            "stateMutability": "view",
            "type": "function"
        },
        {
            "inputs": [
                {
                    "internalType": "address",
                    "name": "owner",
                    "type": "address"
                }
            ],
            "name": "maxRedeem",
            "outputs": [
                {
                    "internalType": "uint256",
                    "name": "",
                    "type": "uint256"
                }
            ],
            "stateMutability": "view",
            "type": "function"
        },
        {
            "inputs": [
                {
                    "internalType": "address",
                    "name": "owner",
                    "type": "address"
                }
            ],
            "name": "maxWithdraw",
            "outputs": [
                {
                    "internalType": "uint256",
                    "name": "",
                    "type": "uint256"
                }
            ],
            "stateMutability": "view",
            "type": "function"
        },
        {
            "inputs": [
                {
                    "internalType": "uint256",
                    "name": "shares",
                    "type": "uint256"
                },
                {
                    "internalType": "address",
                    "name": "receiver",
                    "type": "address"
                }
            ],
            "name": "mint",
            "outputs": [
                {
                    "internalType": "uint256",
                    "name": "",
                    "type": "uint256"
                }
            ],
            "stateMutability": "nonpayable",
            "type": "function"
        },
        {
            "inputs": [],
            "name": "name",
            "outputs": [
                {
                    "internalType": "string",
                    "name": "",
                    "type": "string"
                }
            ],
            "stateMutability": "view",
            "type": "function"
        },
        {
            "inputs": [],
            "name": "owner",
            "outputs": [
                {
                    "internalType": "address",
                    "name": "",
                    "type": "address"
                }
            ],
            "stateMutability": "view",
            "type": "function"
        },
        {
            "inputs": [
                {
                    "internalType": "bytes",
                    "name": "performData",
                    "type": "bytes"
                }
            ],
            "name": "performUpkeep",
            "outputs": [],
            "stateMutability": "nonpayable",
            "type": "function"
        },
        {
            "inputs": [],
            "name": "poolFee",
            "outputs": [
                {
                    "internalType": "uint24",
                    "name": "",
                    "type": "uint24"
                }
            ],
            "stateMutability": "view",
            "type": "function"
        },
        {
            "inputs": [
                {
                    "internalType": "uint256",
                    "name": "assets",
                    "type": "uint256"
                }
            ],
            "name": "previewDeposit",
            "outputs": [
                {
                    "internalType": "uint256",
                    "name": "",
                    "type": "uint256"
                }
            ],
            "stateMutability": "view",
            "type": "function"
        },
        {
            "inputs": [
                {
                    "internalType": "uint256",
                    "name": "shares",
                    "type": "uint256"
                }
            ],
            "name": "previewMint",
            "outputs": [
                {
                    "internalType": "uint256",
                    "name": "",
                    "type": "uint256"
                }
            ],
            "stateMutability": "view",
            "type": "function"
        },
        {
            "inputs": [
                {
                    "internalType": "uint256",
                    "name": "shares",
                    "type": "uint256"
                }
            ],
            "name": "previewRedeem",
            "outputs": [
                {
                    "internalType": "uint256",
                    "name": "",
                    "type": "uint256"
                }
            ],
            "stateMutability": "view",
            "type": "function"
        },
        {
            "inputs": [
                {
                    "internalType": "uint256",
                    "name": "assets",
                    "type": "uint256"
                }
            ],
            "name": "previewWithdraw",
            "outputs": [
                {
                    "internalType": "uint256",
                    "name": "",
                    "type": "uint256"
                }
            ],
            "stateMutability": "view",
            "type": "function"
        },
        {
            "inputs": [
                {
                    "internalType": "uint256",
                    "name": "",
                    "type": "uint256"
                }
            ],
            "name": "prices",
            "outputs": [
                {
                    "internalType": "uint256",
                    "name": "",
                    "type": "uint256"
                }
            ],
            "stateMutability": "view",
            "type": "function"
        },
        {
            "inputs": [
                {
                    "internalType": "uint256",
                    "name": "",
                    "type": "uint256"
                }
            ],
            "name": "purchasePrices",
            "outputs": [
                {
                    "internalType": "uint256",
                    "name": "",
                    "type": "uint256"
                }
            ],
            "stateMutability": "view",
            "type": "function"
        },
        {
            "inputs": [
                {
                    "internalType": "uint256",
                    "name": "shares",
                    "type": "uint256"
                },
                {
                    "internalType": "address",
                    "name": "receiver",
                    "type": "address"
                },
                {
                    "internalType": "address",
                    "name": "owner",
                    "type": "address"
                }
            ],
            "name": "redeem",
            "outputs": [
                {
                    "internalType": "uint256",
                    "name": "",
                    "type": "uint256"
                }
            ],
            "stateMutability": "nonpayable",
            "type": "function"
        },
        {
            "inputs": [],
            "name": "renounceOwnership",
            "outputs": [],
            "stateMutability": "nonpayable",
            "type": "function"
        },
        {
            "inputs": [],
            "name": "resetVotingStatus",
            "outputs": [],
            "stateMutability": "nonpayable",
            "type": "function"
        },
        {
            "inputs": [
                {
                    "internalType": "enum DataTypes.StrategyOption",
                    "name": "newStrategy",
                    "type": "uint8"
                }
            ],
            "name": "restartStrategy",
            "outputs": [],
            "stateMutability": "nonpayable",
            "type": "function"
        },
        {
            "inputs": [
                {
                    "internalType": "address",
                    "name": "",
                    "type": "address"
                }
            ],
            "name": "saveOnlybalances",
            "outputs": [
                {
                    "internalType": "uint256",
                    "name": "",
                    "type": "uint256"
                }
            ],
            "stateMutability": "view",
            "type": "function"
        },
        {
            "inputs": [
                {
                    "internalType": "enum DataTypes.StudentMode",
                    "name": "newMode",
                    "type": "uint8"
                }
            ],
            "name": "setStudentMode",
            "outputs": [],
            "stateMutability": "nonpayable",
            "type": "function"
        },
        {
            "inputs": [],
            "name": "setWinningOption",
            "outputs": [
                {
                    "internalType": "enum DataTypes.StrategyOption",
                    "name": "",
                    "type": "uint8"
                }
            ],
            "stateMutability": "nonpayable",
            "type": "function"
        },
        {
            "inputs": [],
            "name": "strategyAsset",
            "outputs": [
                {
                    "internalType": "address",
                    "name": "",
                    "type": "address"
                }
            ],
            "stateMutability": "view",
            "type": "function"
        },
        {
            "inputs": [],
            "name": "strategyAssetPrice",
            "outputs": [
                {
                    "internalType": "uint256",
                    "name": "",
                    "type": "uint256"
                }
            ],
            "stateMutability": "view",
            "type": "function"
        },
        {
            "inputs": [],
            "name": "strategyOption",
            "outputs": [
                {
                    "internalType": "enum DataTypes.StrategyOption",
                    "name": "",
                    "type": "uint8"
                }
            ],
            "stateMutability": "view",
            "type": "function"
        },
        {
            "inputs": [
                {
                    "internalType": "enum DataTypes.StrategyOption",
                    "name": "",
                    "type": "uint8"
                }
            ],
            "name": "strategyParams",
            "outputs": [
                {
                    "components": [
                        {
                            "internalType": "uint256",
                            "name": "sellBasisPoints",
                            "type": "uint256"
                        },
                        {
                            "internalType": "uint256",
                            "name": "priceIncreaseBasisPoints",
                            "type": "uint256"
                        }
                    ],
                    "internalType": "struct DataTypes.TargetPriceParams",
                    "name": "targetPrice1",
                    "type": "tuple"
                },
                {
                    "components": [
                        {
                            "internalType": "uint256",
                            "name": "sellBasisPoints",
                            "type": "uint256"
                        },
                        {
                            "internalType": "uint256",
                            "name": "priceIncreaseBasisPoints",
                            "type": "uint256"
                        }
                    ],
                    "internalType": "struct DataTypes.TargetPriceParams",
                    "name": "targetPrice2",
                    "type": "tuple"
                },
                {
                    "components": [
                        {
                            "internalType": "uint256",
                            "name": "sellBasisPoints",
                            "type": "uint256"
                        },
                        {
                            "internalType": "uint256",
                            "name": "priceIncreaseBasisPoints",
                            "type": "uint256"
                        }
                    ],
                    "internalType": "struct DataTypes.TargetPriceParams",
                    "name": "targetPrice3",
                    "type": "tuple"
                },
                {
                    "internalType": "uint256",
                    "name": "priceDecreaseBasisPoints",
                    "type": "uint256"
                }
            ],
            "stateMutability": "view",
            "type": "function"
        },
        {
            "inputs": [
                {
                    "internalType": "address",
                    "name": "",
                    "type": "address"
                }
            ],
            "name": "studentHasVoted",
            "outputs": [
                {
                    "internalType": "bool",
                    "name": "",
                    "type": "bool"
                }
            ],
            "stateMutability": "view",
            "type": "function"
        },
        {
            "inputs": [
                {
                    "internalType": "address",
                    "name": "",
                    "type": "address"
                }
            ],
            "name": "studentsMode",
            "outputs": [
                {
                    "internalType": "enum DataTypes.StudentMode",
                    "name": "",
                    "type": "uint8"
                }
            ],
            "stateMutability": "view",
            "type": "function"
        },
        {
            "inputs": [],
            "name": "swapRouter",
            "outputs": [
                {
                    "internalType": "contract ISwapRouter",
                    "name": "",
                    "type": "address"
                }
            ],
            "stateMutability": "view",
            "type": "function"
        },
        {
            "inputs": [],
            "name": "symbol",
            "outputs": [
                {
                    "internalType": "string",
                    "name": "",
                    "type": "string"
                }
            ],
            "stateMutability": "view",
            "type": "function"
        },
        {
            "inputs": [],
            "name": "totalAssets",
            "outputs": [
                {
                    "internalType": "uint256",
                    "name": "",
                    "type": "uint256"
                }
            ],
            "stateMutability": "view",
            "type": "function"
        },
        {
            "inputs": [],
            "name": "totalSupply",
            "outputs": [
                {
                    "internalType": "uint256",
                    "name": "",
                    "type": "uint256"
                }
            ],
            "stateMutability": "view",
            "type": "function"
        },
        {
            "inputs": [
                {
                    "internalType": "address",
                    "name": "to",
                    "type": "address"
                },
                {
                    "internalType": "uint256",
                    "name": "value",
                    "type": "uint256"
                }
            ],
            "name": "transfer",
            "outputs": [
                {
                    "internalType": "bool",
                    "name": "",
                    "type": "bool"
                }
            ],
            "stateMutability": "nonpayable",
            "type": "function"
        },
        {
            "inputs": [
                {
                    "internalType": "address",
                    "name": "from",
                    "type": "address"
                },
                {
                    "internalType": "address",
                    "name": "to",
                    "type": "address"
                },
                {
                    "internalType": "uint256",
                    "name": "value",
                    "type": "uint256"
                }
            ],
            "name": "transferFrom",
            "outputs": [
                {
                    "internalType": "bool",
                    "name": "",
                    "type": "bool"
                }
            ],
            "stateMutability": "nonpayable",
            "type": "function"
        },
        {
            "inputs": [
                {
                    "internalType": "address",
                    "name": "newOwner",
                    "type": "address"
                }
            ],
            "name": "transferOwnership",
            "outputs": [],
            "stateMutability": "nonpayable",
            "type": "function"
        },
        {
            "inputs": [
                {
                    "internalType": "enum DataTypes.StrategyOption",
                    "name": "votedOption",
                    "type": "uint8"
                }
            ],
            "name": "voteStrategyOption",
            "outputs": [],
            "stateMutability": "nonpayable",
            "type": "function"
        },
        {
            "inputs": [],
            "name": "weeklyAmount",
            "outputs": [
                {
                    "internalType": "uint256",
                    "name": "",
                    "type": "uint256"
                }
            ],
            "stateMutability": "view",
            "type": "function"
        },
        {
            "inputs": [
                {
                    "internalType": "uint256",
                    "name": "assets",
                    "type": "uint256"
                },
                {
                    "internalType": "address",
                    "name": "receiver",
                    "type": "address"
                },
                {
                    "internalType": "address",
                    "name": "owner",
                    "type": "address"
                }
            ],
            "name": "withdraw",
            "outputs": [
                {
                    "internalType": "uint256",
                    "name": "",
                    "type": "uint256"
                }
            ],
            "stateMutability": "nonpayable",
            "type": "function"
        },
        {
            "inputs": [],
            "name": "withdrawAll",
            "outputs": [],
            "stateMutability": "nonpayable",
            "type": "function"
        }
    ],
    "bytecode": "6101a0604052600c805462ffffff191690556016805460ff1916905562093a80610180523480156200002f575f80fd5b5060405162003b5a38038062003b5a8339810160408190526200005291620003df565b83858789828a60405180604001604052806008815260200167736176767947484f60c01b815250604051806040016040528060048152602001637347484f60e01b81525089805f6001600160a01b0316816001600160a01b031603620000d157604051631e4fbdf760e01b81525f600482015260240160405180910390fd5b620000dc8162000203565b50600a9050620000ed8382620005ce565b50600b620000fc8282620005ce565b5050505f8062000112836200025260201b60201c565b91509150816200012457601262000126565b805b60ff1660a05250506001600160a01b0390811660805290811660c052600f80546001600160a01b0319169582169590951790945590831660e052909116610100525062000177896201518062000696565b610120526200018a886201518062000696565b6101408190526200019f906201518062000696565b6017819055620001b3906276a70062000696565b610160528051620001cc90600590602084019062000331565b5050601180546001600160a01b0319166001600160a01b039390931692909217909155505050601394909455506200070292505050565b5f80546001600160a01b038381166001600160a01b0319831681178455604051919092169283917f8be0079c531659141344cd1fd0a4f28419497f9722a3daafe3b4186f6b6457e09190a35050565b60408051600481526024810182526020810180516001600160e01b031663313ce56760e01b17905290515f918291829182916001600160a01b038716916200029a91620006bc565b5f60405180830381855afa9150503d805f8114620002d4576040519150601f19603f3d011682016040523d82523d5f602084013e620002d9565b606091505b5091509150818015620002ee57506020815110155b1562000325575f818060200190518101906200030b9190620006ea565b905060ff811162000323576001969095509350505050565b505b505f9485945092505050565b828054828255905f5260205f2090810192821562000387579160200282015b828111156200038757825182546001600160a01b0319166001600160a01b0390911617825560209092019160019091019062000350565b506200039592915062000399565b5090565b5b8082111562000395575f81556001016200039a565b80516001600160a01b0381168114620003c6575f80fd5b919050565b634e487b7160e01b5f52604160045260245ffd5b5f805f805f805f805f806101408b8d031215620003fa575f80fd5b8a51995060208b0151985060408b015197506200041a60608c01620003af565b96506200042a60808c01620003af565b95506200043a60a08c01620003af565b94506200044a60c08c01620003af565b93506200045a60e08c01620003af565b92506200046b6101008c01620003af565b6101208c01519092506001600160401b038082111562000489575f80fd5b818d0191508d601f8301126200049d575f80fd5b815181811115620004b257620004b2620003cb565b604051601f19603f8360051b011681018181108482111715620004d957620004d9620003cb565b6040528181526020808201935060059290921b8401909101908f821115620004ff575f80fd5b6020840193505b818410156200052c576200051a84620003af565b83526020938401939092019162000506565b809450505050509295989b9194979a5092959850565b600181811c908216806200055757607f821691505b6020821081036200057657634e487b7160e01b5f52602260045260245ffd5b50919050565b601f821115620005c9575f81815260208120601f850160051c81016020861015620005a45750805b601f850160051c820191505b81811015620005c557828155600101620005b0565b5050505b505050565b81516001600160401b03811115620005ea57620005ea620003cb565b6200060281620005fb845462000542565b846200057c565b602080601f83116001811462000638575f8415620006205750858301515b5f19600386901b1c1916600185901b178555620005c5565b5f85815260208120601f198616915b82811015620006685788860151825594840194600190910190840162000647565b50858210156200068657878501515f19600388901b60f8161c191681555b5050505050600190811b01905550565b80820180821115620006b657634e487b7160e01b5f52601160045260245ffd5b92915050565b5f82515f5b81811015620006dd5760208186018101518583015201620006c1565b505f920191825250919050565b5f60208284031215620006fb575f80fd5b5051919050565b60805160a05160c05160e0516101005161012051610140516101605161018051613397620007c35f395f818161047b01528181610b140152610de501525f81816104bc015261117301525f61061401525f6108f701525f81816106fe01528181611f020152611f4b01525f611ec601525f81816107e80152818161269801526126f001525f610ab001525f81816104f20152818161094f01528181611fe9015281816121f5015281816122710152818161232501526123b601526133975ff3fe608060405234801561000f575f80fd5b506004361061039e575f3560e01c806394bf804d116101ea578063c63d75b611610114578063dae1b404116100a9578063f30e5b2611610079578063f30e5b26146108d8578063f91f1e4d146108e5578063ff0a9032146108f2578063ffb0b95d14610919575f80fd5b8063dae1b4041461085e578063dd62ed3e1461088d578063ef8b30f714610425578063f2fde38b146108c5575f80fd5b8063d905777e116100e4578063d905777e14610826578063d988bdab14610839578063da2012481461084c578063da8dc88c14610855575f80fd5b8063c63d75b61461052a578063c6e6f59214610425578063ca16dfec1461080a578063ce96cb7714610813575f80fd5b8063aa41bdcb1161018a578063b460af941161015a578063b460af94146107aa578063ba087652146107bd578063bc31c1c1146107d0578063c31c9c07146107e3575f80fd5b8063aa41bdcb1461074e578063aafa3aa614610770578063ad84d9af14610778578063b3d7f6b914610797575f80fd5b8063a1499601116101c5578063a1499601146106f9578063a1db644114610720578063a6be46aa14610733578063a9059cbb1461073b575f80fd5b806394bf804d146106cb57806395d89b41146106de57806397f4adce146106e6575f80fd5b8063402d267d116102cb5780636e04ff0d1161026b5780637de411941161023b5780637de411941461068d578063853828b6146106a05780638da5cb5b146106a85780638e29b3c2146106b8575f80fd5b80636e04ff0d1461063e5780636e553f651461065f57806370a0823114610672578063715018a614610685575f80fd5b80634cdad506116102a65780634cdad506146103d25780635641ec031461060757806359a365a11461060f5780635d1fc8cb14610636575f80fd5b8063402d267d1461052a5780634585e33b1461053e5780634bdeb55f14610553575f80fd5b806318160ddd11610341578063313ce56711610311578063313ce5671461049d578063370e52d8146104b75780633794fd97146104de57806338d52e0f146104f0575f80fd5b806318160ddd14610452578063219ce7181461045a57806323b872dd1461046357806329830f8614610476575f80fd5b8063089fe6aa1161037c578063089fe6aa146103e5578063095ea7b3146104025780630a28a4771461042557806310a424e514610438575f80fd5b806301e1d114146103a257806306fdde03146103bd57806307a2d13a146103d2575b5f80fd5b6103aa610938565b6040519081526020015b60405180910390f35b6103c56109c5565b6040516103b49190612d81565b6103aa6103e0366004612d93565b610a55565b6103ee610bb881565b60405162ffffff90911681526020016103b4565b610415610410366004612dc5565b610a66565b60405190151581526020016103b4565b6103aa610433366004612d93565b610a7d565b6004546104459060ff1681565b6040516103b49190612e01565b6009546103aa565b6103aa60175481565b610415610471366004612e1b565b610a84565b6103aa7f000000000000000000000000000000000000000000000000000000000000000081565b6104a5610aa9565b60405160ff90911681526020016103b4565b6103aa7f000000000000000000000000000000000000000000000000000000000000000081565b600c5461041590610100900460ff1681565b7f00000000000000000000000000000000000000000000000000000000000000005b6040516001600160a01b0390911681526020016103b4565b6103aa610538366004612e54565b505f1990565b61055161054c366004612e6d565b610ad4565b005b6105c4610561366004612ed9565b601060209081525f9182526040918290208251808401845281548152600182015481840152835180850185526002830154815260038301548185015284518086019095526004830154855260058301549385019390935260069091015490929084565b6040805185518152602095860151868201528451918101919091529284015160608401528151608084015292015160a082015260c081019190915260e0016103b4565b610551610cc7565b6103aa7f000000000000000000000000000000000000000000000000000000000000000081565b610445610cfe565b61065161064c366004612e6d565b610da2565b6040516103b4929190612ef7565b6103aa61066d366004612f11565b610fdf565b6103aa610680366004612e54565b6110a0565b6105516110ba565b61055161069b366004612ed9565b6110cd565b610551611169565b5f546001600160a01b0316610512565b6105516106c6366004612ed9565b61125d565b6103aa6106d9366004612f11565b61132d565b6103c5611348565b600c546104159062010000900460ff1681565b6105127f000000000000000000000000000000000000000000000000000000000000000081565b61055161072e366004612f3b565b611357565b6103aa6113fc565b610415610749366004612dc5565b6114d7565b61041561075c366004612e54565b60066020525f908152604090205460ff1681565b6105516114e4565b6103aa610786366004612e54565b601b6020525f908152604090205481565b6103aa6107a5366004612d93565b611554565b6103aa6107b8366004612f59565b611560565b6103aa6107cb366004612f59565b611601565b6103aa6107de366004612d93565b611717565b6105127f000000000000000000000000000000000000000000000000000000000000000081565b6103aa60135481565b6103aa610821366004612e54565b611736565b6103aa610834366004612e54565b6117b6565b601154610512906001600160a01b031681565b6103aa600d5481565b6103aa60125481565b61088061086c366004612e54565b601a6020525f908152604090205460ff1681565b6040516103b49190612f92565b6103aa61089b366004612fa6565b6001600160a01b039182165f90815260086020908152604080832093909416825291909152205490565b6105516108d3366004612e54565b6117c0565b6016546104159060ff1681565b600c546104159060ff1681565b6103aa7f000000000000000000000000000000000000000000000000000000000000000081565b6103aa610927366004612d93565b60196020525f908152604090205481565b6040516370a0823160e01b81523060048201525f907f00000000000000000000000000000000000000000000000000000000000000006001600160a01b0316906370a0823190602401602060405180830381865afa15801561099c573d5f803e3d5ffd5b505050506040513d601f19601f820116820180604052508101906109c09190612fce565b905090565b6060600a80546109d490612fe5565b80601f0160208091040260200160405190810160405280929190818152602001828054610a0090612fe5565b8015610a4b5780601f10610a2257610100808354040283529160200191610a4b565b820191905f5260205f20905b815481529060010190602001808311610a2e57829003601f168201915b5050505050905090565b5f610a60825f6117fa565b92915050565b5f33610a73818585611835565b5060019392505050565b5f81610a60565b5f33610a91858285611847565b610a9c8585856118af565b60019150505b9392505050565b5f6109c0817f0000000000000000000000000000000000000000000000000000000000000000613031565b7f5fe7f977e71dba2ea1a68e21057beebb9be2ac30c6410aa38d4f3fbe41dcffd28282604051610b0592919061304a565b604051809103902003610b53577f000000000000000000000000000000000000000000000000000000000000000060175442610b419190613059565b1115610b535742601755610b5361190c565b7ff2ee15ea639b73fa3db9b34a245bdfa015c260c598b211bf05a1ecc4b3e3b4f28282604051610b8492919061304a565b604051809103902003610c23575f610b9a611992565b6004549091505f9061271090601090839060ff166002811115610bbf57610bbf612ded565b6002811115610bd057610bd0612ded565b81526020019081526020015f2060060154610be96113fc565b610bf3919061306c565b610bfd9190613097565b610c056113fc565b610c0f9190613059565b9050808211610c2057610c20611a13565b50505b7f69c322e3248a5dfc29d73c5b0553b0185a35cd5bb6386747517ef7e53b15e2878282604051610c5492919061304a565b604051809103902003610cc3576004545f9081908190610c769060ff16611a84565b92509250925082610c85611992565b101580610c99575081610c96611992565b10155b80610cab575080610ca8611992565b10155b15610cbf57600454610cbf9060ff16611bbe565b5050505b5050565b610ccf611e88565b610cdb47612710611eb4565b5050610cef6016805460ff19166001179055565b600c805460ff19166001179055565b5f610d07611e88565b6001546002546004805460ff1916905581811115610d37575050600254600180546004805460ff19169092179091555b816003541115610d5857506003546004805460ff1916600217905590610d75565b80600354118015610d6b57508160035414155b15610d7557506003545b808203610d9557604051630c6d8f1760e11b815260040160405180910390fd5b505060045460ff16905090565b5f60607f5fe7f977e71dba2ea1a68e21057beebb9be2ac30c6410aa38d4f3fbe41dcffd28484604051610dd692919061304a565b604051809103902003610e4e577f000000000000000000000000000000000000000000000000000000000000000060175442610e129190613059565b11915083838080601f0160208091040260200160405190810160405280939291908181526020018383808284375f920191909152509293505050505b7ff2ee15ea639b73fa3db9b34a245bdfa015c260c598b211bf05a1ecc4b3e3b4f28484604051610e7f92919061304a565b604051809103902003610f12575f610e95611992565b6004549091505f9061271090601090839060ff166002811115610eba57610eba612ded565b6002811115610ecb57610ecb612ded565b81526020019081526020015f2060060154610ee46113fc565b610eee919061306c565b610ef89190613097565b610f006113fc565b610f0a9190613059565b909111159250505b7f69c322e3248a5dfc29d73c5b0553b0185a35cd5bb6386747517ef7e53b15e2878484604051610f4392919061304a565b604051809103902003610fd8576004545f9081908190610f659060ff16611a84565b92509250925082610f74611992565b101580610f88575081610f85611992565b10155b80610f9a575080610f97611992565b10155b945086868080601f0160208091040260200160405190810160405280939291908181526020018383808284375f920191909152509296505050505050505b9250929050565b5f610fe933611f7e565b61100657604051631ad228eb60e01b815260040160405180910390fd5b5f19611016565b60405180910390fd5b5f61102085610a7d565b905061102e33858784611fe4565b335f908152601a602052604090205460019060ff168181111561105357611053612ded565b0361108157335f908152601b6020526040812080548792906110769084906130cb565b909155506110989050565b8460145f82825461109291906130cb565b90915550505b949350505050565b6001600160a01b03165f9081526007602052604090205490565b6110c2611e88565b6110cb5f612076565b565b6110d5611e88565b600c5462010000900460ff166110e9575f80fd5b6110f16120c5565b6110f96121a0565b5f806111036121f0565b5f818152601960205260408120805493955091935084926111259084906130cb565b9091555061113390506113fc565b600d556004805484919060ff1916600183600281111561115557611155612ded565b021790555050600c805460ff191690555050565b611171611e88565b7f00000000000000000000000000000000000000000000000000000000000000004210156111d85760405162461bcd60e51b8152602060048201526014602482015273546f6f206561726c7920746f2064657374726f7960601b604482015260640161100d565b47476112265760405162461bcd60e51b815260206004820152601960248201527f436f6e74726163742062616c616e636520697320656d70747900000000000000604482015260640161100d565b6011546040516001600160a01b039091169082156108fc029083905f818181858888f19350505050158015610cc3573d5f803e3d5ffd5b61126633611f7e565b61128357604051631ad228eb60e01b815260040160405180910390fd5b335f9081526006602052604090205460ff16156112b357604051632da3ae3f60e21b815260040160405180910390fd5b5f8160028111156112c6576112c6612ded565b036112e7576001805f8282546112dc91906130cb565b9091555061132a9050565b60018160028111156112fb576112fb612ded565b0361131257600160025f8282546112dc91906130cb565b600160035f82825461132491906130cb565b90915550505b50565b5f5f195f61133a85611554565b905061109833858388611fe4565b6060600b80546109d490612fe5565b61136033611f7e565b61137d57604051631ad228eb60e01b815260040160405180910390fd5b335f908152601a60205260409020805482919060ff1916600183818111156113a7576113a7612ded565b021790555060018160018111156113c0576113c0612ded565b0361132a575f6113d26103e0336110a0565b90508060155f8282546113e591906130cb565b9091555050335f908152601b602052604090205550565b5f8080805b6018548110156114b65760195f60188381548110611421576114216130de565b905f5260205f20015481526020019081526020015f20546018828154811061144b5761144b6130de565b905f5260205f20015461145e919061306c565b61146890846130cb565b925060195f60188381548110611480576114806130de565b905f5260205f20015481526020019081526020015f2054826114a291906130cb565b9150806114ae816130f2565b915050611401565b50805f036114c6575f9250505090565b6114d08183613097565b9250505090565b5f33610a738185856118af565b6114ec611e88565b5f5b60055481101561132a575f60065f6005848154811061150f5761150f6130de565b5f918252602080832091909101546001600160a01b031683528201929092526040019020805460ff19169115159190911790558061154c816130f2565b9150506114ee565b5f610a608260016117fa565b5f61156a33611f7e565b61158757604051631ad228eb60e01b815260040160405180910390fd5b5f61159183611736565b9050808511156115ba57828582604051633fa733bb60e21b815260040161100d939291906130aa565b5f8186036115d2576115cb846110a0565b90506115eb565b6115e86115de856110a0565b87908460016122a5565b90505b6115f833868689856122f2565b95945050505050565b5f61160b33611f7e565b61162857604051631ad228eb60e01b815260040160405180910390fd5b60165460ff1661164b57604051632e372e6560e01b815260040160405180910390fd5b5f611655836117b6565b90508085111561167e57828582604051632e52afbb60e21b815260040161100d939291906130aa565b5f60016001600160a01b0385165f908152601a602052604090205460ff1660018111156116ad576116ad612ded565b036116e7576001600160a01b0384165f908152601b60205260409020546116e0906116d7866110a0565b8891905f6122a5565b905061170a565b6117076015546116f56123b2565b6116ff9190613059565b6009546116d7565b90505b6115f8338686848a6122f2565b60188181548110611726575f80fd5b5f91825260209091200154905081565b5f8060016001600160a01b0384165f908152601a602052604090205460ff16600181111561176657611766612ded565b0361178957506001600160a01b0382165f908152601b6020526040902054610a60565b610aa26015546117976123b2565b6117a19190613059565b6009545f6117ae876110a0565b9291906122a5565b5f610a60826110a0565b6117c8611e88565b6001600160a01b0381166117f157604051631e4fbdf760e01b81525f600482015260240161100d565b61132a81612076565b5f806118046123b2565b90506110986118148260016130cb565b61181f5f600a6131ea565b60095461182c91906130cb565b869190866122a5565b611842838383600161247e565b505050565b6001600160a01b038381165f908152600860209081526040808320938616835292905220545f1981146118a9578181101561189b57828183604051637dc7a0d960e11b815260040161100d939291906130aa565b6118a984848484035f61247e565b50505050565b6001600160a01b0383166118d857604051634b637e8f60e11b81525f600482015260240161100d565b6001600160a01b0382166119015760405163ec442f0560e01b81525f600482015260240161100d565b611842838383612542565b600c5460ff16156119515760405162461bcd60e51b815260206004820152600f60248201526e14dd1c985d1959de48195e1a5d1959608a1b604482015260640161100d565b5f8061195b6121f0565b5f8181526019602052604081208054939550919350849261197d9084906130cb565b9091555061198b90506113fc565b600d555050565b5f80600f5f9054906101000a90046001600160a01b03166001600160a01b031663feaf968c6040518163ffffffff1660e01b815260040160a060405180830381865afa1580156119e4573d5f803e3d5ffd5b505050506040513d601f19601f82011682018060405250810190611a089190613211565b509195945050505050565b600c5460ff1615611a22575f80fd5b5f80611a3047612710611eb4565b600c805462ffff0019166201010017905560408051838152602081018390529294509092507f535a75ecdecb4ce1a998f2c71b7adffbe2ffe1c9c2beab91c6782d4a1f780fef910160405180910390a15050565b5f805f8061271060105f876002811115611aa057611aa0612ded565b6002811115611ab157611ab1612ded565b81526020019081526020015f2060040160010154600d54611ad2919061306c565b611adc9190613097565b600d54611ae991906130cb565b90505f61271060105f886002811115611b0457611b04612ded565b6002811115611b1557611b15612ded565b81526020019081526020015f2060020160010154600d54611b36919061306c565b611b409190613097565b600d54611b4d91906130cb565b90505f61271060105f896002811115611b6857611b68612ded565b6002811115611b7957611b79612ded565b81526020019081526020015f205f0160010154600d54611b99919061306c565b611ba39190613097565b600d54611bb091906130cb565b929791965091945092505050565b600c5460ff1615611c035760405162461bcd60e51b815260206004820152600f60248201526e14dd1c985d1959de48195e1a5d1959608a1b604482015260640161100d565b5f805f611c0f84611a84565b925092509250612710600d5484611c269190613059565b1015611c745760405162461bcd60e51b815260206004820152601e60248201527f507269636520696e6372656d656e7420726f756e647320746f207a65726f0000604482015260640161100d565b82611c7d611992565b10611d2a575f80611cc64760105f896002811115611c9d57611c9d612ded565b6002811115611cae57611cae612ded565b81526020019081526020015f206004015f0154611eb4565b9150915080600e5f828254611cdb91906130cb565b90915550506040805160038152602081018490529081018290527fc3116b5ebbbc0f85f6827c2dbe921b0f0baf6d4dc58dec17553b99aa01d9ea54906060015b60405180910390a150506118a9565b81611d33611992565b10611dd5575f80611d7c4760105f896002811115611d5357611d53612ded565b6002811115611d6457611d64612ded565b81526020019081526020015f206002015f0154611eb4565b9150915080600e5f828254611d9191906130cb565b90915550506040805160028152602081018490529081018290527fc3116b5ebbbc0f85f6827c2dbe921b0f0baf6d4dc58dec17553b99aa01d9ea5490606001611d1b565b80611dde611992565b106118a9575f80611e244760105f896002811115611dfe57611dfe612ded565b6002811115611e0f57611e0f612ded565b815260208101919091526040015f2054611eb4565b9150915080600e5f828254611e3991906130cb565b90915550506040805160018152602081018490529081018290527fc3116b5ebbbc0f85f6827c2dbe921b0f0baf6d4dc58dec17553b99aa01d9ea549060600160405180910390a1505050505050565b5f546001600160a01b031633146110cb5760405163118cdaa760e01b815233600482015260240161100d565b5f805f611ec18585612655565b90505f7f0000000000000000000000000000000000000000000000000000000000000000610bb873a0b86991c6218b36c1d19d4a2e9eb0ce3606eb48610bb87f0000000000000000000000000000000000000000000000000000000000000000604051602001611f3595949392919061325d565b6040516020818303038152906040529050611f717f00000000000000000000000000000000000000000000000000000000000000008383612684565b9350935050509250929050565b5f805b600554811015611fdc57826001600160a01b031660058281548110611fa857611fa86130de565b5f918252602090912001546001600160a01b031603611fca5750600192915050565b80611fd4816130f2565b915050611f81565b505f92915050565b6120107f0000000000000000000000000000000000000000000000000000000000000000853085612784565b61201a83826127eb565b826001600160a01b0316846001600160a01b03167fdcbc1c05240f31ff3ad067ef1ee35ce4997762752e3a095284754544f4c709d78484604051612068929190918252602082015260400190565b60405180910390a350505050565b5f80546001600160a01b038381166001600160a01b0319831681178455604051919092169283917f8be0079c531659141344cd1fd0a4f28419497f9722a3daafe3b4186f6b6457e09190a35050565b5f60158190555b600554811015612185576001601a5f600584815481106120ee576120ee6130de565b5f9182526020808320909101546001600160a01b0316835282019290925260400190205460ff16600181111561212657612126612ded565b036121735761215d6103e060058381548110612144576121446130de565b5f918252602090912001546001600160a01b03166110a0565b60155f82825461216d91906130cb565b90915550505b8061217d816130f2565b9150506120cc565b506015546121916123b2565b61219b9190613059565b601455565b5f5b60185481101561132a575f60195f601884815481106121c3576121c36130de565b905f5260205f20015481526020019081526020015f208190555080806121e8906130f2565b9150506121a2565b5f80807f0000000000000000000000000000000000000000000000000000000000000000610bb873a0b86991c6218b36c1d19d4a2e9eb0ce3606eb48610bb873c02aaa39b223fe8d0a0e5c4f27ead9083c756cc260405160200161225895949392919061325d565b604051602081830303815290604052905061229c6122937f000000000000000000000000000000000000000000000000000000000000000090565b60145483612684565b92509250509091565b5f806122b286868661281f565b90506122bd836128de565b80156122d857505f84806122d3576122d3613083565b868809115b156115f8576122e86001826130cb565b9695505050505050565b826001600160a01b0316856001600160a01b03161461231657612316838683611847565b612320838261290a565b61234b7f0000000000000000000000000000000000000000000000000000000000000000858461293e565b826001600160a01b0316846001600160a01b0316866001600160a01b03167ffbde797d201c681b91056529119e0b02407c7bb96a4a2c75c01fc9667232c8db85856040516123a3929190918252602082015260400190565b60405180910390a45050505050565b5f807f00000000000000000000000000000000000000000000000000000000000000006040513060248201526001600160a01b03919091169060440160408051601f198184030181529181526020820180516001600160e01b03166370a0823160e01b1790525161242391906132af565b5f60405180830381855afa9150503d805f811461245b576040519150601f19603f3d011682016040523d82523d5f602084013e612460565b606091505b50915050808060200190518101906124789190612fce565b91505090565b6001600160a01b0384166124a75760405163e602df0560e01b81525f600482015260240161100d565b6001600160a01b0383166124d057604051634a1406b160e11b81525f600482015260240161100d565b6001600160a01b038085165f90815260086020908152604080832093871683529290522082905580156118a957826001600160a01b0316846001600160a01b03167f8c5be1e5ebec7d5bd14f71427d1e84f3dd0314c0f7b2291e5b200ac8c7c3b9258460405161206891815260200190565b6001600160a01b03831661256c578060095f82825461256191906130cb565b909155506125c99050565b6001600160a01b0383165f90815260076020526040902054818110156125ab5783818360405163391434e360e21b815260040161100d939291906130aa565b6001600160a01b0384165f9081526007602052604090209082900390555b6001600160a01b0382166125e557600980548290039055612603565b6001600160a01b0382165f9081526007602052604090208054820190555b816001600160a01b0316836001600160a01b03167fddf252ad1be2c89b69c2b068fc378daa952ba7f163c4a11628f55a4df523b3ef8360405161264891815260200190565b60405180910390a3505050565b5f612710612663838561306c565b101561266d575f80fd5b61271061267a838561306c565b610aa29190613097565b5f806126928533308761296f565b6126bd857f000000000000000000000000000000000000000000000000000000000000000086612a74565b6040805160a0810182528481523360208201524281830152606081018690525f6080820152905163c04b8d5960e01b81527f00000000000000000000000000000000000000000000000000000000000000006001600160a01b03169063c04b8d599061272d9084906004016132ca565b6020604051808303815f875af1158015612749573d5f803e3d5ffd5b505050506040513d601f19601f8201168201806040525081019061276d9190612fce565b91506127798286612b68565b925050935093915050565b6040516001600160a01b0384811660248301528381166044830152606482018390526118a99186918216906323b872dd906084015b604051602081830303815290604052915060e01b6020820180516001600160e01b038381831617835250505050612be0565b6001600160a01b0382166128145760405163ec442f0560e01b81525f600482015260240161100d565b610cc35f8383612542565b5f838302815f1985870982811083820303915050805f036128535783828161284957612849613083565b0492505050610aa2565b8084116128735760405163227bc15360e01b815260040160405180910390fd5b5f848688095f868103871696879004966002600389028118808a02820302808a02820302808a02820302808a02820302808a02820302808a02909103029181900381900460010186841190950394909402919094039290920491909117919091029150509392505050565b5f60028260038111156128f3576128f3612ded565b6128fd9190613321565b60ff166001149050919050565b6001600160a01b03821661293357604051634b637e8f60e11b81525f600482015260240161100d565b610cc3825f83612542565b6040516001600160a01b0383811660248301526044820183905261184291859182169063a9059cbb906064016127b9565b604080516001600160a01b0385811660248301528481166044830152606480830185905283518084039091018152608490920183526020820180516001600160e01b03166323b872dd60e01b17905291515f928392908816916129d291906132af565b5f604051808303815f865af19150503d805f8114612a0b576040519150601f19603f3d011682016040523d82523d5f602084013e612a10565b606091505b5091509150818015612a3a575080511580612a3a575080806020019051810190612a3a9190613342565b612a6c5760405162461bcd60e51b815260206004820152600360248201526229aa2360e91b604482015260640161100d565b505050505050565b604080516001600160a01b038481166024830152604480830185905283518084039091018152606490920183526020820180516001600160e01b031663095ea7b360e01b17905291515f92839290871691612acf91906132af565b5f604051808303815f865af19150503d805f8114612b08576040519150601f19603f3d011682016040523d82523d5f602084013e612b0d565b606091505b5091509150818015612b37575080511580612b37575080806020019051810190612b379190613342565b610cbf5760405162461bcd60e51b8152602060048201526002602482015261534160f01b604482015260640161100d565b5f8083118015612b7757505f82115b612bcd5760405162461bcd60e51b815260206004820152602160248201527f416d6f756e7473206d7573742062652067726561746572207468616e207a65726044820152606f60f81b606482015260840161100d565b8261267a83670de0b6b3a764000061306c565b5f612bf46001600160a01b03841683612c41565b905080515f14158015612c18575080806020019051810190612c169190613342565b155b1561184257604051635274afe760e01b81526001600160a01b038416600482015260240161100d565b6060610aa283835f845f80856001600160a01b03168486604051612c6591906132af565b5f6040518083038185875af1925050503d805f8114612c9f576040519150601f19603f3d011682016040523d82523d5f602084013e612ca4565b606091505b50915091506122e8868383606082612cc457612cbf82612d0b565b610aa2565b8151158015612cdb57506001600160a01b0384163b155b15612d0457604051639996b31560e01b81526001600160a01b038516600482015260240161100d565b5080610aa2565b805115612d1b5780518082602001fd5b604051630a12f52160e11b815260040160405180910390fd5b5f5b83811015612d4e578181015183820152602001612d36565b50505f910152565b5f8151808452612d6d816020860160208601612d34565b601f01601f19169290920160200192915050565b602081525f610aa26020830184612d56565b5f60208284031215612da3575f80fd5b5035919050565b80356001600160a01b0381168114612dc0575f80fd5b919050565b5f8060408385031215612dd6575f80fd5b612ddf83612daa565b946020939093013593505050565b634e487b7160e01b5f52602160045260245ffd5b6020810160038310612e1557612e15612ded565b91905290565b5f805f60608486031215612e2d575f80fd5b612e3684612daa565b9250612e4460208501612daa565b9150604084013590509250925092565b5f60208284031215612e64575f80fd5b610aa282612daa565b5f8060208385031215612e7e575f80fd5b823567ffffffffffffffff80821115612e95575f80fd5b818501915085601f830112612ea8575f80fd5b813581811115612eb6575f80fd5b866020828501011115612ec7575f80fd5b60209290920196919550909350505050565b5f60208284031215612ee9575f80fd5b813560038110610aa2575f80fd5b8215158152604060208201525f6110986040830184612d56565b5f8060408385031215612f22575f80fd5b82359150612f3260208401612daa565b90509250929050565b5f60208284031215612f4b575f80fd5b813560028110610aa2575f80fd5b5f805f60608486031215612f6b575f80fd5b83359250612f7b60208501612daa565b9150612f8960408501612daa565b90509250925092565b6020810160028310612e1557612e15612ded565b5f8060408385031215612fb7575f80fd5b612fc083612daa565b9150612f3260208401612daa565b5f60208284031215612fde575f80fd5b5051919050565b600181811c90821680612ff957607f821691505b60208210810361301757634e487b7160e01b5f52602260045260245ffd5b50919050565b634e487b7160e01b5f52601160045260245ffd5b60ff8181168382160190811115610a6057610a6061301d565b818382375f9101908152919050565b81810381811115610a6057610a6061301d565b8082028115828204841417610a6057610a6061301d565b634e487b7160e01b5f52601260045260245ffd5b5f826130a5576130a5613083565b500490565b6001600160a01b039390931683526020830191909152604082015260600190565b80820180821115610a6057610a6061301d565b634e487b7160e01b5f52603260045260245ffd5b5f600182016131035761310361301d565b5060010190565b600181815b8085111561314457815f190482111561312a5761312a61301d565b8085161561313757918102915b93841c939080029061310f565b509250929050565b5f8261315a57506001610a60565b8161316657505f610a60565b816001811461317c5760028114613186576131a2565b6001915050610a60565b60ff8411156131975761319761301d565b50506001821b610a60565b5060208310610133831016604e8410600b84101617156131c5575081810a610a60565b6131cf838361310a565b805f19048211156131e2576131e261301d565b029392505050565b5f610aa260ff84168361314c565b805169ffffffffffffffffffff81168114612dc0575f80fd5b5f805f805f60a08688031215613225575f80fd5b61322e866131f8565b9450602086015193506040860151925060608601519150613251608087016131f8565b90509295509295909350565b6bffffffffffffffffffffffff19606096871b811682526001600160e81b031960e896871b8116601484015294871b811660178301529290941b909216602b840152921b909116602e82015260420190565b5f82516132c0818460208701612d34565b9190910192915050565b602081525f825160a060208401526132e560c0840182612d56565b905060018060a01b0360208501511660408401526040840151606084015260608401516080840152608084015160a08401528091505092915050565b5f60ff83168061333357613333613083565b8060ff84160691505092915050565b5f60208284031215613352575f80fd5b81518015158114610aa2575f80fdfea2646970667358221220638a1814d89c1329a21516bace342b10936d2959aa55023f53ddb6739cfbe6af64736f6c63430008140033",
    "sourcePath": "/home/smoc/code/SilviaMargaritaOcegueda/savvy/contracts/contracts/HodlVault.sol",
    "compiler": {
        "name": "solc",
        "version": "0.8.20+commit.a1b79de6"
    },
    "functionHashes": {
        "allowance(address,address)": "dd62ed3e",
        "approve(address,uint256)": "095ea7b3",
        "asset()": "38d52e0f",
        "balanceOf(address)": "70a08231",
        "checkUpkeep(bytes)": "6e04ff0d",
        "classAddress()": "d988bdab",
        "convertToAssets(uint256)": "07a2d13a",
        "convertToShares(uint256)": "c6e6f592",
        "decimals()": "313ce567",
        "deposit(uint256,address)": "6e553f65",
        "emergencyExit()": "5641ec03",
        "finalPurchaseTimestamp()": "59a365a1",
        "finalWithdrawalTimestamp()": "370e52d8",
        "firstPurchaseTimestamp()": "ff0a9032",
        "getAveragePrice()": "a6be46aa",
        "intervalAutomation()": "29830f86",
        "isClaimEnabled()": "f30e5b26",
        "isSetModeEnabled()": "3794fd97",
        "isStrategyExited()": "f91f1e4d",
        "isStrategyStopped()": "97f4adce",
        "lastAveragePrice()": "da201248",
        "lastTimeStampAutomation()": "219ce718",
        "maxDeposit(address)": "402d267d",
        "maxMint(address)": "c63d75b6",
        "maxRedeem(address)": "d905777e",
        "maxWithdraw(address)": "ce96cb77",
        "mint(uint256,address)": "94bf804d",
        "name()": "06fdde03",
        "owner()": "8da5cb5b",
        "performUpkeep(bytes)": "4585e33b",
        "poolFee()": "089fe6aa",
        "previewDeposit(uint256)": "ef8b30f7",
        "previewMint(uint256)": "b3d7f6b9",
        "previewRedeem(uint256)": "4cdad506",
        "previewWithdraw(uint256)": "0a28a477",
        "prices(uint256)": "bc31c1c1",
        "purchasePrices(uint256)": "ffb0b95d",
        "redeem(uint256,address,address)": "ba087652",
        "renounceOwnership()": "715018a6",
        "resetVotingStatus()": "aafa3aa6",
        "restartStrategy(uint8)": "7de41194",
        "saveOnlybalances(address)": "ad84d9af",
        "setStudentMode(uint8)": "a1db6441",
        "setWinningOption()": "5d1fc8cb",
        "strategyAsset()": "a1499601",
        "strategyAssetPrice()": "da8dc88c",
        "strategyOption()": "10a424e5",
        "strategyParams(uint8)": "4bdeb55f",
        "studentHasVoted(address)": "aa41bdcb",
        "studentsMode(address)": "dae1b404",
        "swapRouter()": "c31c9c07",
        "symbol()": "95d89b41",
        "totalAssets()": "01e1d114",
        "totalSupply()": "18160ddd",
        "transfer(address,uint256)": "a9059cbb",
        "transferFrom(address,address,uint256)": "23b872dd",
        "transferOwnership(address)": "f2fde38b",
        "voteStrategyOption(uint8)": "8e29b3c2",
        "weeklyAmount()": "ca16dfec",
        "withdraw(uint256,address,address)": "b460af94",
        "withdrawAll()": "853828b6"
    },
    "gasEstimates": {
        "creation": {
            "codeDepositCost": "2641400",
            "executionCost": "infinite",
            "totalCost": "infinite"
        },
        "external": {
            "allowance(address,address)": "infinite",
            "approve(address,uint256)": "24799",
            "asset()": "infinite",
            "balanceOf(address)": "2647",
            "checkUpkeep(bytes)": "infinite",
            "classAddress()": "2425",
            "convertToAssets(uint256)": "infinite",
            "convertToShares(uint256)": "382",
            "decimals()": "infinite",
            "deposit(uint256,address)": "infinite",
            "emergencyExit()": "infinite",
            "finalPurchaseTimestamp()": "infinite",
            "finalWithdrawalTimestamp()": "infinite",
            "firstPurchaseTimestamp()": "infinite",
            "getAveragePrice()": "infinite",
            "intervalAutomation()": "infinite",
            "isClaimEnabled()": "2375",
            "isSetModeEnabled()": "2432",
            "isStrategyExited()": "2397",
            "isStrategyStopped()": "2433",
            "lastAveragePrice()": "2394",
            "lastTimeStampAutomation()": "2374",
            "maxDeposit(address)": "413",
            "maxMint(address)": "412",
            "maxRedeem(address)": "2641",
            "maxWithdraw(address)": "infinite",
            "mint(uint256,address)": "infinite",
            "name()": "infinite",
            "owner()": "2440",
            "performUpkeep(bytes)": "infinite",
            "poolFee()": "272",
            "previewDeposit(uint256)": "403",
            "previewMint(uint256)": "infinite",
            "previewRedeem(uint256)": "infinite",
            "previewWithdraw(uint256)": "405",
            "prices(uint256)": "4672",
            "purchasePrices(uint256)": "2556",
            "redeem(uint256,address,address)": "infinite",
            "renounceOwnership()": "infinite",
            "resetVotingStatus()": "infinite",
            "restartStrategy(uint8)": "infinite",
            "saveOnlybalances(address)": "2617",
            "setStudentMode(uint8)": "infinite",
            "setWinningOption()": "90052",
            "strategyAsset()": "infinite",
            "strategyAssetPrice()": "2416",
            "strategyOption()": "2485",
            "strategyParams(uint8)": "15566",
            "studentHasVoted(address)": "2596",
            "studentsMode(address)": "2636",
            "swapRouter()": "infinite",
            "symbol()": "infinite",
            "totalAssets()": "infinite",
            "totalSupply()": "2349",
            "transfer(address,uint256)": "51337",
            "transferFrom(address,address,uint256)": "infinite",
            "transferOwnership(address)": "28462",
            "voteStrategyOption(uint8)": "infinite",
            "weeklyAmount()": "2395",
            "withdraw(uint256,address,address)": "infinite",
            "withdrawAll()": "infinite"
        },
        "internal": {
            "_addStudents(address[] calldata)": "infinite",
            "_buyStrategyAsset()": "infinite",
            "_clearPurchasePrices()": "infinite",
            "_convertToAssets(uint256,enum Math.Rounding)": "infinite",
            "_convertToShares(uint256,enum Math.Rounding)": "infinite",
            "_disableClaim()": "infinite",
            "_enableClaim()": "infinite",
            "_thisBalanceOfUnderlyingAsset()": "infinite",
            "_updateLiquidityToInvest()": "infinite",
            "purchaseWeekly()": "infinite"
        }
    }
}