{
    "contractName": "Swapper",
    "abi": [
        {
            "inputs": [
                {
                    "internalType": "contract ISwapRouter",
                    "name": "_swapRouter",
                    "type": "address"
                }
            ],
            "stateMutability": "nonpayable",
            "type": "constructor"
        },
        {
            "inputs": [],
            "name": "poolFee",
            "outputs": [
                {
                    "internalType": "uint24",
                    "name": "",
                    "type": "uint24"
                }
            ],
            "stateMutability": "view",
            "type": "function"
        },
        {
            "inputs": [
                {
                    "internalType": "uint256",
                    "name": "amountIn",
                    "type": "uint256"
                },
                {
                    "internalType": "bytes",
                    "name": "_path",
                    "type": "bytes"
                }
            ],
            "name": "swapExactInputMultihop",
            "outputs": [
                {
                    "internalType": "uint256",
                    "name": "price",
                    "type": "uint256"
                },
                {
                    "internalType": "uint256",
                    "name": "amountOut",
                    "type": "uint256"
                }
            ],
            "stateMutability": "nonpayable",
            "type": "function"
        },
        {
            "inputs": [],
            "name": "swapRouter",
            "outputs": [
                {
                    "internalType": "contract ISwapRouter",
                    "name": "",
                    "type": "address"
                }
            ],
            "stateMutability": "view",
            "type": "function"
        }
    ],
    "bytecode": "60a060405234801561000f575f80fd5b5060405161073d38038061073d83398101604081905261002e9161003f565b6001600160a01b031660805261006c565b5f6020828403121561004f575f80fd5b81516001600160a01b0381168114610065575f80fd5b9392505050565b6080516106ac6100915f395f8181609201528181610108015261016001526106ac5ff3fe608060405234801561000f575f80fd5b506004361061003f575f3560e01c8063089fe6aa1461004357806387fdea2a14610065578063c31c9c071461008d575b5f80fd5b61004c610bb881565b60405162ffffff90911681526020015b60405180910390f35b610078610073366004610497565b6100cc565b6040805192835260208301919091520161005c565b6100b47f000000000000000000000000000000000000000000000000000000000000000081565b6040516001600160a01b03909116815260200161005c565b5f806100ee7340d16fc0246ad3160ccc09b8d0d3a2cd28ae6c2f3330876101f3565b61012d7340d16fc0246ad3160ccc09b8d0d3a2cd28ae6c2f7f0000000000000000000000000000000000000000000000000000000000000000866102fd565b6040805160a0810182528481523360208201524281830152606081018690525f6080820152905163c04b8d5960e01b81527f00000000000000000000000000000000000000000000000000000000000000006001600160a01b03169063c04b8d599061019d90849060040161056e565b6020604051808303815f875af11580156101b9573d5f803e3d5ffd5b505050506040513d601f19601f820116820180604052508101906101dd91906105dc565b91506101e982866103f8565b9250509250929050565b604080516001600160a01b0385811660248301528481166044830152606480830185905283518084039091018152608490920183526020820180516001600160e01b03166323b872dd60e01b17905291515f9283929088169161025691906105f3565b5f604051808303815f865af19150503d805f811461028f576040519150601f19603f3d011682016040523d82523d5f602084013e610294565b606091505b50915091508180156102be5750805115806102be5750808060200190518101906102be919061060e565b6102f55760405162461bcd60e51b815260206004820152600360248201526229aa2360e91b60448201526064015b60405180910390fd5b505050505050565b604080516001600160a01b038481166024830152604480830185905283518084039091018152606490920183526020820180516001600160e01b031663095ea7b360e01b17905291515f9283929087169161035891906105f3565b5f604051808303815f865af19150503d805f8114610391576040519150601f19603f3d011682016040523d82523d5f602084013e610396565b606091505b50915091508180156103c05750805115806103c05750808060200190518101906103c0919061060e565b6103f15760405162461bcd60e51b8152602060048201526002602482015261534160f01b60448201526064016102ec565b5050505050565b5f808311801561040757505f82115b61045d5760405162461bcd60e51b815260206004820152602160248201527f416d6f756e7473206d7573742062652067726561746572207468616e207a65726044820152606f60f81b60648201526084016102ec565b8261047083670de0b6b3a7640000610634565b61047a9190610657565b90505b92915050565b634e487b7160e01b5f52604160045260245ffd5b5f80604083850312156104a8575f80fd5b82359150602083013567ffffffffffffffff808211156104c6575f80fd5b818501915085601f8301126104d9575f80fd5b8135818111156104eb576104eb610483565b604051601f8201601f19908116603f0116810190838211818310171561051357610513610483565b8160405282815288602084870101111561052b575f80fd5b826020860160208301375f6020848301015280955050505050509250929050565b5f5b8381101561056657818101518382015260200161054e565b50505f910152565b602081525f825160a0602084015280518060c08501526105958160e086016020850161054c565b60018060a01b0360208601511660408501526040850151606085015260608501516080850152608085015160a085015260e0601f19601f8301168501019250505092915050565b5f602082840312156105ec575f80fd5b5051919050565b5f825161060481846020870161054c565b9190910192915050565b5f6020828403121561061e575f80fd5b8151801515811461062d575f80fd5b9392505050565b808202811582820484141761047d57634e487b7160e01b5f52601160045260245ffd5b5f8261067157634e487b7160e01b5f52601260045260245ffd5b50049056fea2646970667358221220a6af8969262f868ce13b720c65f391bb1dad1ec965cbe479de847af3e9cb98df64736f6c63430008140033",
    "sourcePath": "/home/smoc/code/SilviaMargaritaOcegueda/savvy/contracts/contracts/Swapper.sol",
    "compiler": {
        "name": "solc",
        "version": "0.8.20+commit.a1b79de6"
    },
    "functionHashes": {
        "poolFee()": "089fe6aa",
        "swapExactInputMultihop(uint256,bytes)": "87fdea2a",
        "swapRouter()": "c31c9c07"
    },
    "gasEstimates": {
        "creation": {
            "codeDepositCost": "341600",
            "executionCost": "infinite",
            "totalCost": "infinite"
        },
        "external": {
            "poolFee()": "170",
            "swapExactInputMultihop(uint256,bytes)": "infinite",
            "swapRouter()": "infinite"
        },
        "internal": {
            "_getStrategyAssetPurchasePrice(uint256,uint256)": "infinite"
        }
    }
}